:040000008DEF00F090
:100008004C82FACF02F0FBCF03F0E9CF04F0EACF3D
:1000180005F0E1CF06F0E2CF07F0D9CF08F0DACF4C
:1000280009F0F3CF0AF0F4CF0BF0F6CF0CF0F7CFCE
:100038000DF0F8CF0EF0F5CF0FF04CC010F04DC01A
:1000480011F04EC012F04FC013F0F29E9EA027D0C0
:100058009E90F00ECF6E5F0ECE6E010E366E59EC8E
:1000680014F03A50D8A43A0600019F51A011D8B410
:1000780003D09F07D8A0A0070101CB05D8A405D0BD
:10008800050E646104D0642B02D0000E646F050E67
:100098006419D8A404D0000ECB6F010ECA6FA4AAAD
:1000A80011D0A49A0101CE51010D970EF324D96EF7
:1000B800010EF420DA6E74CFDFFFCE2B010ECB6F6A
:1000C800000E646FF28E13C04FF012C04EF011C0D4
:1000D8004DF010C04CF00FC0F5FF0EC0F8FF0DC07A
:1000E800F7FF0CC0F6FF0BC0F4FF0AC0F3FF09C00E
:1000F800DAFF08C0D9FF07C0E2FF06C0E1FF05C06C
:10010800EAFF04C0E9FF03C0FBFF02C0FAFF4C92FC
:06011800110073EF14F06A
:101000000030313233343536373839414243444584
:101010004610204080102040800102040801020494
:10102000080402010810208040010204081020403A
:10103000808040201008040201E80364000A0001D7
:101040000004050602010064000A0001000406080D
:10105000030507020000000E1B6E000E196E000E45
:10106000216E000E226E000E206EEDD12150156E05
:10107000166A030E1526000E1622840E1524D96E4C
:10108000000E1620DA6EDF50FF0A186E2250010D96
:10109000990EF324D96E000EF420DA6E2150010D62
:1010A000840EF324E16E000EF420E26EE75018186F
:1010B000FF0ADF6E2250010D990EF324D96E000E47
:1010C000F420DA6EDF50156E2250010D900EF324DD
:1010D000D96E000EF420DA6E1550DF122250010D89
:1010E000960EF324D96E000EF420DA6E2250010D14
:1010F000930EF324E16E000EF420E26EE750156EBD
:101100002250010D900EF324E16E000EF420E26EE9
:10111000E7501518DF6E00019F51A011D8A407D029
:10112000A151FF0AA16F010EA06FF40E9F6FA15194
:10113000D8A4AED02250010D900EF324D96E000E2B
:10114000F420DA6EDF50156E2250010D960EF32456
:10115000D96E000EF420DA6EDF50FF0A15141D6EF2
:101160002150156E166A010E1526000E1622840EE9
:101170001524D96E000E1620DA6EDF501D141E6E77
:101180002150156E166A010E1526000E1622840EC9
:101190001524D96E000E1620DA6EDF50FF0A1D14DA
:1011A0001F6E000E236E070E236401D00FD1040EB4
:1011B000236038D01EBE1BD02350010D190EF3241E
:1011C000F66E100EF420F76E0800F550FF0A156E4B
:1011D0002050166E176A010E1626000E1722A50E55
:1011E0001624D96E000E1720DA6E1550DF161FBEBA
:1011F00049D02350010D110EF324F66E100EF42089
:10120000F76E0800F550FF0A156E2050166E176A2B
:10121000010E1626000E1722A50E1624D96E000EFA
:1012200017202DD01EBE16D02350010D190EF32409
:10123000F66E100EF420F76E0800F550FF0A156EDA
:101240002050010DA50EF324D96E000EF420DA6EA5
:101250001550DF161FBE16D02350010D110EF324BA
:10126000F66E100EF420F76E0800F550FF0A156EAA
:101270002050010DA50EF324D96E000EF420DA6E75
:101280001550DF16D8901E36D8901F36232A8BD7DC
:101290002250010D900EF324D96E000EF420DA6E68
:1012A000DF501D6E2150156E166A010E1526000EB8
:1012B0001622840E1524D96E000E1620DA6EDF5029
:1012C0001D141E6E2150156E166A010E1526000E95
:1012D0001622840E1524D96E000E1620DA6EDF5009
:1012E000FF0A1D141F6E000E236E070E236401D02B
:1012F0006DD0040E236036D01EAE1AD02350010DDF
:10130000190EF324F66E100EF420F76E0800F5CFD8
:1013100015F02050166E176A010E1626000E1722C1
:10132000A50E1624D96E000E1720DA6E1550DF12A6
:101330001FAE46D02350010D110EF324F66E100E91
:10134000F420F76E0800F5CF15F02050166E176ADE
:10135000010E1626000E1722A50E1624D96E000EB9
:1013600017202BD01EAE15D02350010D190EF324DB
:10137000F66E100EF420F76E0800F5CF15F0205031
:10138000010DA50EF324D96E000EF420DA6E15506F
:10139000DF121FAE15D02350010D110EF324F66E8F
:1013A000100EF420F76E0800F5CF15F02050010D57
:1013B000A50EF324D96E000EF420DA6E1550DF125C
:1013C000D8901E36D8901F36232A8FD72250010D71
:1013D000900EF324D96E000EF420DA6EDF501C6EEE
:1013E000000E1A6E000E236E070E236401D01BD070
:1013F0002350010D290EF324F66E100EF420F76E23
:101400000800F5501C140009D8B40BD02350010D6E
:10141000210EF324F66E100EF420F76E0800F5503E
:101420001A12232AE1D72250010DA20EF324D96EFD
:10143000000EF420DA6E1A50FF0ADF6E040E212629
:10144000222A020E20260C0E216006D0030E2260F6
:1014500003D0050E20640AD6000186510F0BAB6F36
:1014600083B003D071EC13F00DD083B203D0DDEC68
:1014700013F008D083B403D0A9EC12F003D083A6F4
:10148000D9EC10F0000E216E000E226E3DD02250DD
:10149000010D900EF324D96E000EF420DA6EDF50A9
:1014A000156E2250010D9C0EF324D96E000EF4200F
:1014B000DA6EDF5015181B6E2150156E166A010E7C
:1014C0001526000E1622840E1524D96E000E162045
:1014D000DA6EDF50196E1B5019181C6E1C50FF0A73
:1014E0001B140009D8B404D08A9889900001B081F7
:1014F0001C501B140009D8B404D08A988A9A0001A1
:10150000B083040E2126222A0C0E21601200020E46
:101510002264BDD71200414A422A010E226E000EFB
:10152000236E000E246E000E256E41C026F042C0D0
:1015300027F0000E25EC13F020EE41F0DECF2BF06B
:10154000DDCF2CF02B3A2C3AF00E2C162B500F0B33
:101550002C12F00E2B162B502D6E2C502E6E2F6A47
:10156000306A100E2D240001DD6F000E2E20DE6F7C
:10157000000E2F20DF6F000E3020E06FE0510DE1F4
:10158000DF05D8B00AD00FD0DDC0D8F0DEC0D9F06A
:10159000DFC0DAF0E0C0DBF053D0E05107E1020E2B
:1015A000DF5DD8B003D0000EC36FEED7E0510DE180
:1015B000030EDF5DD8B009D00ED0000EDD25D86F48
:1015C000000EDE21D96FFE0E36D0E05107E1040E89
:1015D000DF5DD8B003D0010EC36FEFD7E0510DE14E
:1015E000050EDF5DD8B009D00ED0000EDD25D86F16
:1015F000000EDE21D96FFC0E1ED0E05107E1060E71
:10160000DF5DD8B003D0020EC36FEFD7E05104E125
:10161000070EDF5DD8A006D0E05112E1080EDF5DB5
:10162000D8B00ED0030EC36F000EDD25D86F000EAC
:10163000DE21D96FFA0EDF21DA6FFF0EE021DB6FBA
:101640003BC0C4F03CC0C5F03DC0C6F03EC0C7F0D2
:101650003FC0C8F040C0C9F0AFC0CAF096C0CBF0E0
:1016600097C0CCF098C0CDF086C0CEF08AC0CFF045
:101670008EC0D0F085C0D1F089C0D2F08DC0D3F03B
:10168000000EDC6F0F0EDC6501D01ED0D8C017F045
:10169000D9C018F0DAC019F0DBC01AF0DC51010D26
:1016A000C40EF324D96E000EF420DA6EDF501B6EE8
:1016B000C3519BEC11F0010E0001D827000ED92375
:1016C000DA23DB23DC2BDED7000E436E1200A1D021
:1016D00031043210D8A405D0DDEC13F04BEC13F03C
:1016E000120098C11CF01D6A95EC13F01200020E56
:1016F00031183210D8A405D0A9EC12F04BEC13F03D
:10170000120098C11CF01D6A95EC13F01200030E34
:1017100031183210D8A405D0D9EC10F04BEC13F0EE
:10172000120098C11CF01D6A95EC13F01200040E13
:1017300031183210D8A405D071EC13F04BEC13F033
:10174000120098C11CF01D6A95EC13F01200EF0E08
:10175000311803E1EF0E3218D8A41200000E426EC9
:10176000000E416E8BEC0AF04BEC13F0120031C00E
:101770003DF03D50A1EC14F0176E060E8CEC14F009
:101780004BEC13F0120031C03CF03C50A1EC14F0D3
:10179000176E050E8CEC14F04BEC13F0120031C0F8
:1017A0003BF03B50A1EC14F0176E040E8CEC14F0DF
:1017B0004BEC13F0120031C03EF03E50A1EC14F09F
:1017C000176E020E8CEC14F04BEC13F0120031C0CB
:1017D0003FF03F50A1EC14F0176E010E8CEC14F0AA
:1017E0004BEC13F0120031C041F032C042F0010E58
:1017F000226E000E236E000E246E000E256E41C078
:1018000026F042C027F0000E25EC13F04BEC13F04D
:10181000120033C0E1F034C0E2F00001E251000AEE
:10182000D8A41200E151000AD8B452D7010AD8B4A2
:101830005ED7030AD8B46BD7060AD8B478D7010AA2
:10184000D8B485D7030AD8B492D7010AD8B49BD7A5
:101850000F0AD8B4A4D7010AD8B4ADD7030AD8B4B4
:10186000B6D7010AD8A41200BED70101CA51D8B414
:101870001200000ECB6F000ECA6F000E646F9751FE
:10188000CF19D8B403D0000ECE6F1200970E146E8D
:10189000010E156ECE51FE0F166E4AEC12F014C0FA
:1018A000E7F015C0E8F0FF0E0001E36FFF0EE46FF4
:1018B0000101CE510001E56FE66BE351E527E451EC
:1018C000E623970EE525D96E010EE621DA6EDF508C
:1018D000F06FFE0EE36FFF0EE46F0101CE510001C9
:1018E000E56FE66BE351E527E451E623970EE52526
:1018F000D96E010EE621DA6EDF50EF6FE751EF1976
:1019000004E1E851F019D8B404D0000E0101CE6F03
:1019100012009AC1EFF099C1F0F0EFC0EDF0F0C005
:10192000EEF09CC1EFF09BC1F0F0EFC0EBF0F0C027
:10193000ECF050D00001EE5115E1190EED5DD8B07C
:1019400011D0EC510FE1190EEB5DD8B00BD0EBC00C
:101950001CF0ECC01DF0EDC01EF0EEC01FF0F6EC68
:101960000CF0120098C11CF01D6A95EC13F01200E7
:101970000001EE510FE10C0EED5DD8B00BD0EBC0C5
:1019800031F0ECC032F0EDC033F0EEC034F067EC73
:101990000BF0120098C11CF01D6A95EC13F01200B8
:1019A00099C1E9F00001EA6BE951EA6FE96B0101C5
:1019B0009A510001E927000EEA23E9C022F0EAC0AB
:1019C00023F0AFEC0DF0120098C11CF01D6AB9ECC9
:1019D00013F0120001019851030AD8B4ABD7050ADD
:1019E000D8B4C6D70E0AD8B4DBD7EED797C165F105
:1019F00098C166F11CC026F0265026240101676FAD
:101A00001EC026F01C50262690C000F1016B91C02C
:101A100002F1036B92C004F1056B96C006F1076BEF
:101A200097C008F1096B98C00AF10B6B86C00CF1E6
:101A30000D6B8AC00EF10F6B8EC010F1116B85C05B
:101A400012F1136B89C014F1156B8DC016F1176B71
:101A5000AFC020F08F0E20162050186F196BB0C049
:101A60001AF11B6B41C01CF142C01DF13DC01EF1BB
:101A70001F6B3BC020F1216B3CC022F1236B3EC0A9
:101A800024F1256B3FC026F1276B40C028F1296B5C
:101A9000020E286E1EC027F02ED0282A2850010DD5
:101AA000650EF324D96E010EF420DA6E2750020D74
:101AB000000EF324E16E010EF420E26EE6CF20F07A
:101AC000E5CF21F021C020F0216A2050DF6E282AC6
:101AD0002750020D000EF324D96E010EF420DA6EA9
:101AE0002850010D650EF324E16E010EF420E26E24
:101AF000DFCFE7FF272A2650275CD8A0CED7010EDC
:101B00002824226E236A000E2322650E146E010E15
:101B1000156E22C016F04AEC12F014C024F015C065
:101B200025F0282A2850010D650EF324D96E010EE8
:101B3000F420DA6E24C0DFFF282A2850010D650E3C
:101B4000F324D96E010EF420DA6E25C0DFFF28C021
:101B5000C9F1000E0101CD6F010ECC6F120022C041
:101B600024F023C025F0243A253AF00E25162450FF
:101B70000F0B2512F00E24162450266E2550276ECA
:101B8000286A296A100E26242A6E000E27202B6E42
:101B9000000E28202C6E000E29202D6ECFC165F17D
:101BA000080E0101666F2350676F22C068F1000EB6
:101BB000306E0F0E306401D022D03050246E256A72
:101BC000040E2426000E2522650E2424D96E010E53
:101BD0002520DA6E2AC017F02BC018F02CC019F09F
:101BE0002DC01AF00001C3511CEC11F0DF6E010E84
:101BF0002A26000E2B222C222D22302ADAD7650E1F
:101C0000146E010E156E140E166E4AEC12F014C00E
:101C10002EF015C02FF02F500101796F2EC07AF1F0
:101C2000150EC96F010ECC6F000ECD6F1200000EA5
:101C3000166E898A000E186E07D000F000F000F0D2
:101C400000F000F000F0182A310E1864F6D7899AD7
:101C5000000E186E07D000F000F000F000F000F069
:101C600000F0182A310E1864F6D7898A000E186E13
:101C7000310E186401D008D000F000F000F000F040
:101C800000F000F0182AF4D7000E176E050E176446
:101C900001D01200000E166E000E186E070E1864AA
:101CA00001D016D016501624166E84B0168089887E
:101CB000000E186E07D000F000F000F000F000F009
:101CC00000F0182A130E1864F6D78998182AE6D758
:101CD0001750146E156A030E1426000E1522600E9E
:101CE0001424D96E000E1520DA6E16C0DFFF172AF5
:101CF000CDD7000E1E6E050E1E6401D054D01E50AE
:101D0000146E156A141E151E144A152A050E142683
:101D1000000E1522A50E1424D96E000E1520DA6EC1
:101D20001E50010D160EF324E16E000EF420E26E3B
:101D3000DFCFE7FF1E50010D160EF324D96E000E03
:101D4000F420DA6EDF501C6E8B9000F000F0000E75
:101D50001D6E070E1D6401D024D01D50010D310EE3
:101D6000F324F66E100EF420F76E0800F5501C14E4
:101D7000146E1D50010D310EF324F66E100EF4207A
:101D8000F76E0800F5501418D8A402D08B8401D047
:101D90008B948B8000F000F08B9000F000F01D2AF7
:101DA000D8D71E2AA8D78B8200F000F08B9200F0C3
:101DB00000F01200000E1B6E020E1B6401D042D018
:101DC0001B50146E156A141E151E144A152A020E95
:101DD0001426000E1522A20E1424D96E000E152012
:101DE000DA6E1B50010D160EF324E16E000EF42086
:101DF000E26EDFCFE7FF1B50010D160EF324D96E04
:101E0000000EF420DA6EDF501A6E899C00F000F0AC
:101E1000000E196E070E196401D012D01AAE02D04E
:101E20008D8401D08D94898C00F000F0899C00F0A5
:101E300000F01A501A241A6E00F000F0192AEAD79E
:101E40001B2ABAD7898E00F000F0899E00F000F0BE
:101E50001200000EFFEC13F01A6E1A9E1AC017F053
:101E6000000E8CEC14F0100E176E070E8CEC14F0B4
:101E70003F0EFFEC13F01A6E070EFFEC13F0196E15
:101E8000AA0E1A18D8A404D0100E1918D8B412002B
:101E9000000E176E000E8CEC14F0180E176E010E6B
:101EA0008CEC14F0020E176E020E8CEC14F00D0E7A
:101EB000176E040E8CEC14F00C0E176E050E8CECE5
:101EC00014F0120E176E060E8CEC14F0100E176E36
:101ED000070E8CEC14F0AA0E176E3F0E8CEC14F06B
:101EE000010E176E3E0E8CEC14F01200000E196EEF
:101EF000000E186E0101CC51D8B41200CD51C95D4D
:101F0000D8B009D0000EC96F000ECC6F000ECD6F97
:101F1000000ECE6F1200A4A8FED7A4988C8C8C8AD9
:101F20000101CD51010D650EF324D96E010EF4208F
:101F3000DA6EDF50B6EC14F0176E1730D8A002D06E
:101F4000728001D072900101CD51010D650EF32414
:101F5000D96E010EF420DA6EDF50736ECD2B000EB9
:101F6000196E000E186E03D000F0184A192A8A0E56
:101F7000185C020E1958D8A0F7D78C9A1200000EE0
:101F8000196E080E196401D012001950010D600E6F
:101F9000F324D96E000EF420DA6EDF50166E000EB8
:101FA000176E000E186E070E186401D024D018505A
:101FB000010D290EF324F66E100EF420F76E0800C2
:101FC000F55016140009D8B414D01850146E156AC0
:101FD000141E151E144A152A070E1426000E15226B
:101FE000290E1424F66E100E1520F76E0800F55019
:101FF0001712182AD8D71950010D6C0EF324D96E78
:10200000000EF420DA6E17C0DFFF192ABAD7000ECF
:10201000196E080E196401D012001950010D6C0ED2
:10202000F324D96E000EF420DA6EDF50186E1950CA
:10203000010D780EF324D96E000EF420DA6EDF5015
:10204000166E18501618FF0A176E1750FF0A156EF5
:1020500015501814146E1950010D840EF324D96E06
:10206000000EF420DA6E1450DF1217501810146EA0
:102070001950010D840EF324D96E000EF420DA6E8F
:102080001450DF161950010D780EF324D96E000E8E
:10209000F420DA6E18C0DFFF192ABBD7474A482A56
:1020A000F40E475C010E4858D8A01200000E486E8E
:1020B000000E476E000E196E050E196401D017D080
:1020C0001950010D3B0EF324D96E000EF420DA6E88
:1020D0001950010D410EF324F66E100EF420F76E28
:1020E0000800F550FFEC13F0DF6E192AE5D7409E8B
:1020F000000E196E050E196401D012001950010D61
:102100003B0EF324D96E000EF420DA6E1950010D47
:102110003B0EF324E16E000EF420E26EE750C8ECB3
:1021200014F0DF6E192AE6D7000E366E3650D8B49A
:10213000FDD7000E366E79EC0EF0392A1DD079EC01
:102140000EF0F2D712EC12F0EFD717EC0EF0ECD73E
:10215000BFEC0FF007EC10F0E7D7DAEC0EF0E4D7A5
:102160004EEC10F0E1D735EC0CF0DED776EC0FF04A
:10217000DBD7000E396E12003950010AD8B4DFD710
:10218000030AD8B4DFD7010AD8B4DFD7070AD8B416
:10219000DFD7010AD8B4E1D7030AD8B4E1D7010ADE
:1021A000D8B4E1D70F0AD8B4E1D7010AD8B4E1D73F
:1021B000BBD70001AFA51200000E146E020E14640E
:1021C00001D034D01450010D900EF324D96E000EBE
:1021D000F420DA6E000EDF6E1450010D960EF3241B
:1021E000D96E000EF420DA6E000EDF6E1450010D71
:1021F000930EF324D96E000EF420DA6E000EDF6E1B
:102200001450010D9C0EF324D96E000EF420DA6EEA
:10221000000EDF6E1450010D440EF324D96E000E33
:10222000F420DA6E000EDF6E142AC8D7F20E000119
:10223000AF17FC0EB01712001E6E000E1D6E1A5066
:1022400003E11904D8A002D0A80E01D0A00E216E7F
:1022500017C017F018C018F0196A1A6A17C01FF0D3
:1022600018C020F020C01BF01FC01CF01E501E2400
:102270001E6E21501E10216EF0EC14F0080E146E2C
:102280002150D5EC12F0080E146E1B50D5EC12F054
:10229000080E146E1C50D5EC12F02180F0EC14F0F6
:1022A000080E146E2150D5EC12F0080E3EEC14F01E
:1022B0001D6EF9EC14F002EC15F01D5012007AECD2
:1022C00012F0E5EC14F000F000F000F000F000F087
:1022D00096928A888A8A0001A269A369A4698D827C
:1022E000000EF26F640EF16FD8EC14F08D92FFECDB
:1022F00012F00AEC15F0010E0101CF6F010E176EFE
:10230000000E186E000E196E000E1A6E000E1CECF8
:1023100011F0356E3550416E426A29EC0FF094ECA5
:1023200010F02BEC08F0D7EC11F04304D8A4F7D749
:102330008BEC0AF0F4D71E6E1A5003E11904D8A0F2
:1023400002D0A80E01D0A00E216E17C017F018C041
:1023500018F0196A1A6A17C01FF018C020F020C0C0
:102360001CF01FC01DF01E501E241E6E21501E109A
:10237000216EF0EC14F0080E146E2150D5EC12F022
:10238000080E146E1C50D5EC12F0080E146E1D5081
:10239000D5EC12F0080E146E1B50D5EC12F002ECC6
:1023A00015F00C0E3A6E3A50D8B41200FCD7000E5D
:1023B000166E020E166401D012001650010D960E14
:1023C000F324D96E000EF420DA6EDF50D8B428D092
:1023D0001650010D960EF324D96E000EF420DA6E1D
:1023E0001650010D440EF324E16E000EF420E26E4F
:1023F000DE50E618D8B414D01650010D960EF32412
:10240000D96E000EF420DA6E1650010D440EF3243E
:10241000E16E000EF420E26EDFCFE7FF010E436EA7
:10242000162AC7D7000E156E898200F000F0899237
:1024300000F000F000F000F000F000F0898200F001
:1024400000F0000E166E020E166401D01200000E8F
:10245000156E000E146E070E146401D00FD01550C7
:102460001524156E80B61580898400F000F000F008
:1024700000F000F000F08994142AEDD71650010DF9
:10248000600EF324D96E000EF420DA6E15C0DFFF63
:10249000162AD9D71A681B6825D014C0D9FF15C0D1
:1024A000DAFFDF501A1A080E196E1950D8B417D077
:1024B0001AA00CD0D8901B30176E1A301A6E17C0A5
:1024C0001BF0010E1A1AA00E1B1A07D0D8901B3051
:1024D000176E1A301A6E17C01BF01906E6D71606CB
:1024E000144A152A1650D8A4D8D71AC014F01BC005
:1024F00015F01200080E926E000E936E000E946E90
:10250000070E826E0F0E956E020E966E000E806E96
:10251000000E816E000E836E000E846E000EC26E81
:10252000000EC16E000E0F01386F000E396F000EE5
:102530003A6F000E3B6F000E3C6F000E5D6F000E99
:10254000BD6E000E666ED388D38AD38C030ED31271
:1025500012000001AFA71200000E146E020E1464E8
:1025600001D01ED01450010D960EF324D96E000E2A
:10257000F420DA6E000EDF6E1450010D900EF3247D
:10258000D96E000EF420DA6E1450010D930EF32470
:10259000E16E000EF420E26EDFCFE7FF142ADED7F3
:1025A000FC0E0001B017AF851200156E82961FEC6D
:1025B00014F0000E166E12D015AE02D0828801D033
:1025C000829800F000F000F000F082861FEC14F01A
:1025D00082961FEC14F0D8901536162A1450165C0B
:1025E000D8A0EAD7948800F000F000F082861FECB3
:1025F00014F082961FEC14F0829894981200948E36
:10260000949C958E959C8398AC987298B896709689
:10261000AC847284670EAF6E000EB06E670E756E7E
:10262000000E766E729C719C240EAC6E240E726E3F
:10263000AC8A728A9D8AA38AF28EF28C900EAB6E5F
:10264000900E716E9E9AA49A1200286E26C029F0F0
:1026500027C02AF022C017F023C018F024C019F0B8
:1026600025C01AF029C01BF028509BEC11F0010E78
:102670002226000E23222422252222C017F023C066
:1026800018F024C019F025C01AF02AC01BF02850F9
:102690009BEC11F01200000E146E000E146E13D09D
:1026A0001450010D970EF324D96E010EF420DA6E4A
:1026B0001450010D650EF324E16E010EF420E26E5C
:1026C000DFCFE7FF142A0101CE51145CD8A0E8D770
:1026D000CE05C96F000ECD6F000ECE6F010ECC6F10
:1026E00012000001AF81000E146E020E146401D0BE
:1026F00016D01450010D930EF324D96E000EF42061
:10270000DA6E000EDF6E1450010D900EF324D96EB8
:10271000000EF420DA6EFF0EDF6E142AE6D7030EE9
:102720000001B0138A988A9A12001CC01EF01DC0C6
:102730001FF0CFC165F11E5080090101666F020EC6
:10274000676F650E146E010E156E030E166E4AEC61
:1027500012F014C020F015C021F020C068F121C093
:1027600069F1040E0101C96F000ECD6F010ECC6F2F
:1027700012001CC01EF01DC01FF0CFC165F11E501D
:1027800080090101666F010E676F650E146E010E00
:10279000156E030E166E4AEC12F014C020F015C030
:1027A00021F020C068F121C069F1040E0101C96F58
:1027B000000ECD6F010ECC6F12000001AF87000E2E
:1027C000146E020E146401D014D01450010D900E3A
:1027D000F324D96E000EF420DA6E1450010D9C0E15
:1027E000F324E16E000EF420E26EDFCFE7FF142A3F
:1027F000E8D7FC0E0001B0178A888A8A1200176E8B
:10280000000E186EF0EC14F0080E146ED00ED5EC1D
:1028100012F0080E146E1750D5EC12F0F0EC14F014
:10282000080E146ED10ED5EC12F0080E3EEC14F02A
:10283000186EF9EC14F002EC15F01850120000F0CC
:1028400000F000F000F000F000F000F000F000F008
:1028500000F000F000F000F000F000F000F000F0F8
:1028600000F000F000F000F000F000F000F000F0E8
:1028700000F000F000F000F000F01200156E000E05
:10288000166E948882861FEC14F082A803D0146A16
:10289000142A01D0146A165016241410166E82964B
:1028A0001FEC14F015061550D8A4ECD794981650C8
:1028B0001200374A382AFA0E37183810D8A41200F6
:1028C000000E386E000E376E8AAE02D0010E01D0B7
:1028D000000EFF0A016E013201328A5001187F0B8F
:1028E00001188A6E120001EE00F0D00EEE6AE806C2
:1028F000FDE100EE60F0640EEE6AE806FDE100EE38
:1029000036F0160EEE6AE806FDE14C904C92000E91
:10291000F86E00015FEF11F0186EF0EC14F0080E85
:10292000146ED00ED5EC12F0080E146E1850D5ECC3
:1029300012F0080E146E1750D5EC12F002EC15F0E0
:102940001200146E000E156E03D0152A0A0E145EC6
:102950000A0E1460FAD71538F00B156EF00E151626
:102960000F0E14161450151215501200146E000E8E
:10297000156E000E166E070E166401D006D014B048
:10298000152AD8901432162AF6D71550010B1200CA
:10299000166E16500F0B146E16380F0B0F0B156EAC
:1029A0000A0E1502F350156E15501426145012001D
:1029B00006D00001F107D8A0F20794EC10F0000156
:1029C000F151F211D8B41200F4D79D80F28CF28E3E
:1029D0009E90F00ECF6E5F0ECE6E010ECD6E120089
:1029E000828882861FEC14F082981FEC14F0829685
:1029F000120082881FEC14F082861FEC14F082967D
:102A00008298120082981FEC14F082861FEC14F05A
:0A2A10008288120094989496120038
:020000040020DA
:08000000FFFFFFFFFFFFFFFF00
:020000040030CA
:0E000000FF281E3CFFBF81FF00800FE00F4075
:00000001FF
